:100000001CC02EC02DC02CC02BC02AC029C028C0A7
:1000100027C026C025C024C023C022C021C020C0C4
:100020001FC01EC01DC01CC01BC01AC019C018C0F4
:1000300017C016C032393532380011241FBECFEF39
:10004000D4E0DEBFCDBF11E0A0E0B1E0E2E1F3E03B
:1000500002C005900D92A830B107D9F716D057C14C
:10006000CFCF1F93CF93DF93182FEB0188E61BD1DF
:10007000812F1CD102C01AD1219688818823D9F7FB
:100080003ED1DF91CF911F910895DF93CF93CDB7EC
:10009000DEB727970FB6F894DEBF0FBECDBF1CD0DA
:1000A00081E06AE0EED0DE011196E0E0F1E087E069
:1000B00001900D928150E1F788E0BE016F5F7F4FA4
:1000C000D0DF80E090E027960FB6F894DEBF0FBE39
:1000D000CDBFCF91DF91089520982198289A299A31
:1000E000389A409808959BB19F709BB99BB1807FCF
:1000F000892B8BB95B9A85E38A95F1F75B98089514
:100100001F93182F5A9AEFDF812F8295807FEBDFA4
:100110008AE78A95F1F71F9108951F93182F5A982F
:10012000E2DF812F8295807FDEDF80E78A95F1F71D
:100130001F91089581E0F1DF80EA9FE00197F1F7D8
:1001400008950F931F938AB18C6F8AB98BB1837016
:100150008BB980E395E70197F1F780E3C4DF00E115
:1001600017E2C8010197F1F75B9A25E3822F8A9580
:10017000F1F75B9880ED97E0FC013197F1F75B9A1E
:100180002A95F1F75B980197F1F780E2ACDFC8019F
:100190000197F1F788E2C1DF8CE0BFDF86E0BDDFC9
:1001A000C9DF1F910F91089582E0B7DF80EA9FE0D9
:1001B0000197F1F70895623061F0633018F461300F
:1001C00071F405C0633039F0643049F406C08058DA
:1001D00005C0805403C0805701C080539EDF08953E
:1001E000CF93DF93EC0102C021968ADF88818823B8
:1001F000D9F7DF91CF9108950F931F93CF93DF939A
:100200008B01880F880F880F806487DFC0E0D0E003
:10021000F801EC0FFD1F808173DF2196C830D105F6
:10022000B9F7DF91CF911F910F910895982F84EA2C
:100230008093BC008091BC0087FFFCCF8091B90007
:10024000887F883039F08091B900887F803111F043
:1002500081E008959093BB0084E88093BC00809176
:10026000BC0087FFFCCF8091B900887F883139F0CE
:100270008091B900887F803411F082E0089580E099
:1002800008956B3008F46BE03D983C98882319F092
:10029000459A449A02C0459844986093B80081E01A
:1002A0008093B90008958E7FC1DF08958093BB00CD
:1002B00084E88093BC008091BC0087FFFCCF8091D4
:1002C000B90090E0887F883209F091E0892F089585
:1002D0008160ACDF089584EC8093BC008091BC0009
:1002E00087FFFCCF8091BB00089584E88093BC0019
:1002F0008091BC0087FFFCCF8091BB00089584E90A
:100300008093BC008091BC0084FDFCCF0895F894DC
:02031000FFCF1D
:08031200534532393532380041
:00000001FF
