:100000001CC023C022C021C020C01FC01EC01DC0F4
:100010001CC01BC01AC019C018C017C016C015C01C
:1000200014C013C012C011C010C00FC00EC00DC04C
:100030000CC00BC032393532380011241FBECFEF4F
:10004000D4E0DEBFCDBF02D01FC0DACF19D042E06E
:1000500028EC30E01899FECF85B1842785B98CEB68
:1000600092E0F9013197F1F70197D9F7189BFECF8C
:100070008CEB92E0F9013197F1F70197D9F7EACFCC
:0C0080002098289A219A0895F894FFCF48
:00000001FF
