:100000001CC02EC02DC02CC02BC02AC029C028C0A7
:1000100027C026C025C024C023C022C021C020C0C4
:100020001FC01EC01DC01CC01BC01AC019C018C0F4
:1000300017C016C032393532380011241FBECFEF39
:10004000D4E0DEBFCDBF11E0A0E0B1E0E4E5FAE02E
:1000500002C005900D92A234B107D9F7D5D0F8C4EB
:10006000CFCF36D180E091E089D180E062E071D1DC
:100070008BE091E083D180E49CE90197F1F7199B33
:10008000FECF20E048EC50E008C0FA013197F1F7CC
:100090000197D9F72F5F263019F084EC99E0F5CF5E
:1000A00008950F931F9380EACCD18FE0CDD180EAE1
:1000B000DDD1DFD1182FE7D1082FEFD1D2DF312FDB
:1000C00020E0200F311DC9011F910F91089500D12B
:1000D00087E191E053D180E062E03BD183E291E09F
:1000E0004DD180E49CE90197F1F7189BFECF20E009
:1000F00048EC50E008C0FA013197F1F70197D9F7C1
:100100002F5F263019F084EC99E0F5CF08950F9316
:100110001F938C0180EA95D18FE096D1812F94D1E5
:10012000802F92D1BAD1D3DF1F910F910895AF9252
:10013000BF92CF92DF92EF92FF920F931F93DF93C4
:10014000CF93CDB7DEB7A2970FB6F894DEBF0FBE40
:10015000CDBF5B012DB73EB7285030400FB6F894A5
:100160003EBF0FBE2DBFEDB7FEB731966E010894AE
:10017000C11CD11CADB7BEB71296DC92CE921197BE
:1001800000E110E0138302832DE231E03583248304
:10019000978386838AD1EDB7FEB7319682E1E82E48
:1001A000F12CEC0EFD1EADB7BEB71296FC92EE928E
:1001B00011971383028386E391E095838483B7824A
:1001C000A68273D12DB73EB7285F3F4F0FB6F89484
:1001D0003EBF0FBE2DBF7CD0C601D0D080E062E014
:1001E000B8D0C701CBD0A2960FB6F894DEBF0FBE31
:1001F000CDBFCF91DF911F910F91FF90EF90DF90D6
:10020000CF90BF90AF900895EF92FF920F931F93FE
:10021000CF93DF9325D063D081E06AE000D100E086
:1002200010E098ECE92EF12C88EE93E004C0F70181
:100230003197F1F701970097D1F7C0917800D091ED
:100240007900CE01B80173DF189902C0CE015FDFDB
:10025000199B03C088EE93E0EACF23DF8C01E4CF43
:1002600022982398289A299A3898409880E4809375
:100270007C00EAE7F0E086E080838081806E808306
:1002800008959BB19F709BB99BB1807F892B8BB9DF
:100290005B9A85E38A95F1F75B9808951F93182F71
:1002A0005A9AEFDF812F8295807FEBDF8AE78A956C
:1002B000F1F71F9108951F93182F5A98E2DF812FAD
:1002C0008295807FDEDF80E78A95F1F71F910895A0
:1002D00081E0F1DF80EA9FE00197F1F708950F9345
:1002E0001F938AB18C6F8AB98BB183708BB980E30D
:1002F00095E70197F1F780E3C4DF00E117E2C80159
:100300000197F1F75B9A25E3822F8A95F1F75B98C5
:1003100080ED97E0FC013197F1F75B9A2A95F1F7B0
:100320005B980197F1F780E2ACDFC8010197F1F724
:1003300088E2C1DF8CE0BFDF86E0BDDFC9DF1F914F
:100340000F91089582E0B7DF80EA9FE00197F1F70F
:100350000895623061F0633018F4613071F405C0C3
:10036000633039F0643049F406C0805805C08054C9
:1003700003C0805701C080539EDF0895CF93DF9361
:10038000EC0102C021968ADF88818823D9F7DF91AA
:10039000CF9108950F931F93CF93DF938B01880F15
:1003A000880F880F806487DFC0E0D0E0F801EC0F91
:1003B000FD1F808173DF2196C830D105B9F7DF9129
:1003C000CF911F910F910895982F84EA8093BC00DC
:1003D0008091BC0087FFFCCF8091B900887F883076
:1003E00039F08091B900887F803111F081E0089563
:1003F0009093BB0084E88093BC008091BC0087FF91
:10040000FCCF8091B900887F883139F08091B900A4
:10041000887F803411F082E0089580E008956B3089
:1004200008F46BE03D983C98882319F0459A449A6B
:1004300002C0459844986093B80081E08093B90069
:1004400008958E7FC1DF08958093BB0084E8809378
:10045000BC008091BC0087FFFCCF8091B90090E088
:10046000887F883209F091E0892F08958160ACDFA0
:10047000089584EC8093BC008091BC0087FFFCCF82
:100480008091BB00089584E88093BC008091BC00FB
:1004900087FFFCCF8091BB00089584E98093BC0066
:1004A0008091BC0084FDFCCF0895AEE0B0E0EAE5A9
:1004B000F2E0A5C20D891E898F89988D97FF02C031
:1004C00080E090E801979E838D831A83098386E0FC
:1004D0008C839E01255E3F4FCE010196698D7A8DFA
:1004E000A90111D04D815E8157FD0AC02F81388549
:1004F000421753070CF49A01020F131FF8011082E0
:100500002E96E4E098C2ABE0B0E0E8E8F2E069C221
:100510003C012B015A01FC0117821682838181FD67
:1005200003C06FEF7FEFB9C19AE0892E1E010894D6
:10053000211C311CF3012381F20123FD859123FF4E
:1005400081912F01882309F4A5C1853239F423FD57
:10055000859123FF81912F01853221F490E0B30131
:10056000B6D1E8CF982FFF24EE249924FFE1FF15A0
:10057000D0F09B3269F09C3228F4903259F09332DB
:1005800091F40EC09D3249F0903369F441E024C0EB
:1005900052E0F52A84E0F82A28C098E0F92A25C01C
:1005A000E0E1FE2A22C0F7FC29C0892F80538A305F
:1005B00070F4F6FE05C0989C902C1124980E15C07E
:1005C000E89CE02C1124E80EF0E2FF2A0EC09E32D7
:1005D00029F4F6FC5FC140E4F42A07C09C3619F404
:1005E00050E8F52A02C0983649F4F20123FD9591AE
:1005F00023FF91912F01992309F0B8CF892F8554BA
:10060000833018F08052833038F444E050E0A40E78
:10061000B51E5FE359830FC0933631F0933779F0FD
:10062000933509F052C01FC0F5018081898342E0F3
:1006300050E0A40EB51E610101E010E011C0F5010B
:10064000C080D180F6FC03C06FEF7FEF02C0692D40
:1006500070E042E050E0A40EB51EC6012DD18C0121
:100660005FE7F52213C0F501C080D180F6FC03C01E
:100670006FEF7FEF02C0692D70E042E050E0A40E02
:10068000B51EC6010ED18C0150E8F52AF3FE06C056
:1006900018C080E290E0B3011AD1EA948E2D90E068
:1006A00008171907B0F30DC0F601F7FC8591F7FEA6
:1006B00081916F0190E0B3010AD1E110EA940150F9
:1006C00010400115110581F7E2C0943611F09936FA
:1006D00061F5F7FE08C0F501208131814281538127
:1006E00084E090E00AC0F501808191819C0144275B
:1006F00037FD4095542F82E090E0A80EB91E9FE68A
:10070000F92257FF09C050954095309521953F4FEC
:100710004F4F5F4FE0E8FE2ACA01B901A1012AE06C
:1007200030E001D1D82ED2183FC0953729F41F2DC3
:100730001F7E2AE030E01DC01F2D197F9F3661F01B
:10074000903720F4983509F0A5C00FC0903739F0E4
:10075000983709F09FC004C028E030E00AC010615B
:1007600014FD146020E130E004C014FD166020E1A7
:1007700032E017FF08C0F5016081718182819381A9
:1007800044E050E008C0F50180819181BC0180E027
:1007900090E042E050E0A40EB51EA101C4D0D82ED6
:1007A000D2188FE7F82EF122F6FE0BC05EEFF5228D
:1007B000D91438F4F4FE07C0F2FC05C08FEEF8221D
:1007C00002C01D2D01C0192DF4FE0DC0FE01ED0D5E
:1007D000F11D8081803319F499EEF92208C01F5F62
:1007E000F2FE05C003C08F2D867809F01F5F0F2D24
:1007F000F3FC13C0F0FE0EC01E1510F09D2C0AC0B5
:100800009D2C9E0C911A1E2D05C080E290E0B30134
:100810005ED01F5F1E15C8F304C01E1510F4E11A48
:1008200001C0EE2404FF0EC080E390E0B3014FD07E
:1008300002FF1BC001FD03C088E790E00EC088E501
:1008400090E00BC0802F867881F001FF02C08BE220
:1008500001C080E2F7FC8DE290E0B30138D005C022
:1008600080E390E0B30133D09A94D914C8F3DA94BA
:10087000F101ED0DF11D808190E0B30128D0DD2064
:10088000B1F705C080E290E0B30121D0EA94EE20F8
:10089000C9F750CEF30166817781CB012B96E2E157
:1008A000BCC0FC010590615070400110D8F78095E4
:1008B00090958E0F9F1F0895FC016150704001902C
:1008C0000110D8F7809590958E0F9F1F08950F9374
:1008D0001F93CF93DF938C01EB018B8181FF1BC0B2
:1008E00082FF0DC02E813F818C819D8128173907A1
:1008F00064F4E881F9810193F983E88306C0E8850F
:10090000F985802F0995892B31F48E819F8101967D
:100910009F838E8302C00FEF1FEFC801DF91CF913D
:100920001F910F910895FA01AA27283051F1203123
:1009300081F1E8946F936E7F6E5F7F4F8F4F9F4F73
:10094000AF4FB1E03ED0B4E03CD0670F781F891FB5
:100950009A1FA11D680F791F8A1F911DA11D6A0F83
:10096000711D811D911DA11D20D009F468943F9136
:100970002AE0269F11243019305D3193DEF6CF0135
:100980000895462F4770405D4193B3E00FD0C9F7FB
:10099000F6CF462F4F70405D4A3318F0495D31FD68
:1009A0004052419302D0A9F7EACFB4E0A6959795BB
:1009B000879577956795BA95C9F700976105710591
:1009C00008959B01AC010A2E0694579547953795DB
:1009D0002795BA95C9F7620F731F841F951FA01D35
:1009E00008952F923F924F925F926F927F928F92D3
:1009F0009F92AF92BF92CF92DF92EF92FF920F93AE
:100A00001F93CF93DF93CDB7DEB7CA1BDB0B0FB6B7
:100A1000F894DEBF0FBECDBF09942A883988488874
:100A20005F846E847D848C849B84AA84B984C8840A
:100A3000DF80EE80FD800C811B81AA81B981CE0F01
:100A4000D11D0FB6F894DEBF0FBECDBFED010895E6
:040A5000F894FFCF48
:100A540056616C7565206C6F61640066726F6D2001
:100A64006D656D6F72790056616C75652073617682
:100A7400656400746F206D656D6F727900506F74DA
:100A8400693A202569004D656D6F72793A202569B0
:020A9400000060
:00000001FF
