:100000001CC053C05DC021C020C01FC01EC01DC089
:100010001CC01BC01AC06AC018C05DC016C015C085
:1000200014C013C012C011C010C00FC00EC00DC04C
:100030000CC00BC032393532380011241FBECFEF4F
:10004000D4E0DEBFCDBF1FD05CC0DACF529853984A
:100050005A9A5B9A209A219A229AE89AE99AEFE6AC
:10006000F0E080818160808380818260808388EE7F
:1000700093E09093890080938800E1E8F0E080812C
:10008000846080830895E2DF789422E08091840088
:100090009091850089509D43C8F385B1822785B929
:1000A0001092850010928400F1CF1F920F920FB62C
:1000B0000F921124289A0F900FBE0F901F90189541
:1000C0001F920F920FB60F92112428980F900FBE17
:1000D0000F901F9018951F920F920FB60F92112438
:1000E0002A9A0F900FBE0F901F9018951F920F9293
:1000F0000FB60F9211242A980F900FBE0F901F90E9
:060100001895F894FFCFF2
:00000001FF
