:100000001CC036C035C034C033C032C031C030C06F
:100010002FC02EC02DC02CC02BC02AC029C028C084
:1000200027C026C025C024C023C022C021C020C0B4
:100030001FC01EC032393532380011241FBECFEF29
:10004000D4E0DEBFCDBF11E0A0E0B1E0ECE4F4E12C
:1000500002C005900D92AA3FB107D9F712E0AAEFAE
:10006000B1E001C01D92A130B107E1F7B1D5ECC9F3
:10007000C7CF282F22952F709AE0299F9001112435
:100080008F70820F0895482F6AE0FFD6282F30E046
:1000900084E0220F331F8A95E1F7842FF6D6892F4B
:1000A000822B0895CF92DF92EF92FF920F931F93CE
:1000B000DF93CF93CDB7DEB760970FB6F894DEBF6E
:1000C0000FBECDBF182F062F8DB79EB740970FB626
:1000D000F8949EBF0FBE8DBFEDB7FEB731967E017F
:1000E0000894E11CF11CADB7BEB71296FC92EE92DB
:1000F000119790E1C92ED12CD382C28280E091E089
:10010000958384838091FD01868317828091FC0111
:10011000808711868091FB01828713868091FF0181
:10012000848715868091FA0186871786BAD68DB79F
:100130009EB740960FB6F8949EBF0FBE8DBFB8D540
:10014000C7010CD61123A1F0ADB7BEB718970FB6F3
:10015000F894BEBF0FBEADBFEDB7FEB73196129695
:10016000FC92EE921197D382C2828AE191E013C091
:10017000ADB7BEB718970FB6F894BEBF0FBEADBFF0
:10018000EDB7FEB731961296FC92EE921197D3829C
:10019000C28285E291E0958384830683178281D6AB
:1001A0008DB79EB708960FB6F8949EBF0FBE8DBF51
:1001B00080E062E0BED5CE010196D0D560960FB644
:1001C000F894DEBF0FBECDBFCF91DF911F910F918D
:1001D000FF90EF90DF90CF9008950F931F93082F1B
:1001E000162F80EA1ED6812F1FD6802F1DD645D60A
:1001F00080E29EE40197F1F71F910F9108950F930C
:100200001F93182F062F80ED0CD6882329F4812FF9
:100210000BD6802F09D631D61F910F91089588E013
:1002200060E0EDDF89E060E0EADF42D58FE291E057
:1002300095D588EE93E028EC30E0F9013197F1F79D
:100240000197D9F708C088EE93E0F9013197F1F7EB
:10025000019719F0FACF28EC30E0189BF4CF199BE6
:10026000F2CF80E197E228EC30E0F9013197F1F725
:100270000197D9F708951F93182F80EAD2D5812FBF
:10028000D3D580EAE3D5EFD5182FF7D5812F1F916D
:1002900008951F93182F80EDC4D5882311F010E026
:1002A00007C0812FC1D580EDD1D5DDD5182FE5D57B
:1002B000812F1F9108952F923F924F925F927F92CC
:1002C0008F929F92AF92BF92CF92DF92EF92FF9266
:1002D0000F931F93DF93CF93CDB7DEB7A0970FB6E1
:1002E000F894DEBF0FBECDBF89E0D3DF082F80E0DA
:1002F000C2DF8823E1F4DCD48CE391E02FD528EC35
:1003000030E007C088EE93E0F9013197F1F70197EB
:10031000D9F7189BF7CF199BF5CF80E197E228EC2E
:1003200030E0F9013197F1F70197D9F7D9C0C0D47E
:1003300084E491E013D528EC30E007C088EE93E028
:10034000F9013197F1F70197D9F7189BF7CF199B6E
:10035000F5CF80E197E228EC30E0F9013197F1F731
:100360000197D9F7102F50E1252E312C41E1442E71
:10037000512C4C0E5D1E38ECE32EF12C91C02AEF6F
:10038000B22EB10E8B2D77DF782E812F855073DF43
:10039000882E812F84506FDF982E812F83506BDF42
:1003A000A82E812F825067DFC82E812F815063DFF6
:1003B000D82E54C08DB79EB70E970FB6F8949EBF37
:1003C0000FBE8DBFEDB7FEB7319681E090E08C0F88
:1003D0009D1FADB7BEB712969C938E931197338233
:1003E0002282AEE4B1E0B583A48376821782808650
:1003F000118692861386A486158653D50F900F908A
:100400000F900F90EDB7FEB73196ADB7BEB712960D
:100410005C924E9211973382228286E691E0958318
:100420008483C6821782D08611863BD5ADB7BEB70E
:100430001A960FB6F894BEBF0FBEADBF39D4CE0129
:1004400001968CD480E062E074D4C20187D488EE37
:1004500093E0F7013197F1F70197D9F7189B02C0A4
:100460001999A8CF189B08C00BC08EEE92E0F70137
:100470003197F1F70197D9F7189BF7CF1B2D0DC0D6
:10048000199B08C00AC08EEE92E0F7013197F1F790
:100490000197D9F7199BF7CF1A5F011708F4102FAE
:1004A000112309F06CCF04D487E791E057D480E0A2
:1004B00062E03FD482E891E051D480E49CE9019766
:1004C000F1F7189BFECF199BFCCF80E49CE90197C4
:1004D000F1F704C0189902C0A2DE02C01999FACF40
:1004E000A0960FB6F894DEBF0FBECDBFCF91DF91BF
:1004F0001F910F91FF90EF90DF90CF90BF90AF9042
:100500009F908F907F905F904F903F902F90089595
:100510001F9380E0BEDE182F80ED83D4882311F076
:1005200081E027C080E080D417FF05C08091FB01E7
:10053000AADD806804C08091FB01A5DD8F7774D4AB
:100540008091FC01A0DD70D48091FD019CDD6CD414
:100550008091000269D48091FF0195DD65D480917E
:10056000FA0191DD61D48091FE018DDD5DD485D4E9
:1005700080E01F910895EF92FF920F93DF93CF9346
:10058000CDB7DEB760970FB6F894DEBF0FBECDBF14
:1005900089E07FDE082F89E07CDE8C3F08F041C1D6
:1005A00088E077DE882309F095C080ED97E028EC9D
:1005B00030E0F9013197F1F70197D9F712C078D3FC
:1005C0008DE891E0CBD380E062E0B3D38CE991E099
:1005D000C5D388EE93E0F7013197F1F70197D9F78A
:1005E00003C068ECE62EF12C189B02C01999E7CFE6
:1005F000199960C00C5F8091FD01602FEEDD0F5FE7
:100600008091FC01602FE9DD8DB79EB70E970FB684
:10061000F8949EBF0FBE8DBFEDB7FEB731967E0139
:100620000894E11CF11CADB7BEB71296FC92EE9295
:10063000119780E190E0938382838DEA91E0958326
:1006400084838091FD01868317828091FC018087DD
:1006500011868091FB01828713868091FE01848739
:1006600015861FD48DB79EB70E960FB6F8949EBF11
:100670000FBE8DBF1DD3C70171D380E062E059D397
:1006800084EC91E06BD380E197E228EC30E0F90153
:100690003197F1F70197D9F708C088EE93E0F90197
:1006A0003197F1F70197D9F702C028EC30E0199B98
:1006B000F4CFB7C0189B09C00DC088EE93E0F901D4
:1006C0003197F1F70197D9F702C028EC30E0189B79
:1006D000F4CFA7C0602F6C5F8091FD017EDD602F9D
:1006E0006B5F8091FC0179DDADB7BEB71E970FB689
:1006F000F894BEBF0FBEADBFEDB7FEB731967E0119
:100700000894E11CF11C1296FC92EE92119780E184
:1007100090E0938382838DEA91E095838483809136
:10072000FD01868317828091FC018087118680916C
:10073000FB01828713868091FE0184871586B1D3E1
:100740008DB79EB70E960FB6F8949EBF0FBE8DBFA5
:10075000AFD2C70103D380E062E0EBD280ED91E03D
:10076000FDD288E060E04BDD602F6A5F89E047DD05
:1007700028EC30E007C088EE93E0F9013197F1F7FB
:100780000197D9F7189BF7CF199BF5CF80E197E236
:1007900028EC30E0F9013197F1F70197D9F7809112
:1007A000FC01823340F082538093FC018091FD0173
:1007B0008F5F8093FD018091FD01883128F0809149
:1007C000FF018F5F8093FF018091FF018E3140F028
:1007D0008D518093FF018091FA018F5F8093FA0120
:1007E00080910002863038F0109200028091FF0163
:1007F0008F5F8093FF0187E08093FD01802F66E08B
:1008000044D39091FC01980F9093FC018091FF01DB
:100810008F5F8093FF01809100028F5F80930002C1
:1008200077DE60960FB6F894DEBF0FBECDBFCF91D6
:10083000DF910F91FF90EF900895EF92FF920F9349
:100840001F93DF93CF93CDB7DEB760970FB6F894C1
:10085000DEBF0FBECDBF89E01CDD082F89E019DDAA
:100860008C3F08F03AC188E014DD882309F494C075
:1008700080ED97E028EC30E0F9013197F1F701972E
:10088000D9F712C015D28CED91E068D280E062E019
:1008900050D28CE991E062D288EE93E0F701319773
:1008A000F1F70197D9F703C078ECE72EF12C189BEC
:1008B00002C01999E7CF18995FC00E5F8091FD01C2
:1008C000602F8BDC0F5F8091FC01602F86DC8DB781
:1008D0009EB70E970FB6F8949EBF0FBE8DBFEDB7B3
:1008E000FEB731968E010F5F1F4FADB7BEB71296A0
:1008F0001C930E93119780E190E0938382838DEA9D
:1009000091E0958384838091FD0186831782809195
:10091000FC01808711868091FB018287138680917C
:10092000FE0184871586BDD28DB79EB70E960FB691
:10093000F8949EBF0FBE8DBFBBD1C8010FD280E01F
:1009400062E0F7D184EC91E009D280E197E228ECF3
:1009500030E0F9013197F1F70197D9F708C088EE37
:1009600093E0F9013197F1F70197D9F702C028EC2C
:1009700030E0189BF4CFB1C0199B09C00DC088EEC0
:1009800093E0F9013197F1F70197D9F702C028EC0C
:1009900030E0199BF4CFA1C08091FF01602F1DDCD6
:1009A0000F5F8091FA01602F18DC0F5F8091FD01CD
:1009B000602F13DC0F5F8091FC01602F0EDCADB760
:1009C000BEB71E970FB6F894BEBF0FBEADBFEDB752
:1009D000FEB731968E010F5F1F4F12961C930E9338
:1009E000119780E190E0938382838DEA91E0958373
:1009F00084838091FD01868317828091FC0180872A
:100A000011868091FB01828713868091FE01848785
:100A1000158647D28DB79EB70E960FB6F8949EBF37
:100A20000FBE8DBF45D1C80199D180E062E081D170
:100A30008CEE91E093D180E197E228EC30E0F9016F
:100A40003197F1F70197D9F788E061E0D8DB28EC1E
:100A500030E007C088EE93E0F9013197F1F7019794
:100A6000D9F7189BF7CF199BF5CF88EE93E028ECC8
:100A700030E0F9013197F1F70197D9F78091FC0146
:100A80008A3340F08A538093FC018091FD018F5F8F
:100A90008093FD018091FD01883140F08851809361
:100AA000FD018091FF018F5F8093FF018091FF0125
:100AB0008E3140F08D518093FF018091FA018F5F5C
:100AC0008093FA018091FC018E5F8093FC018091FC
:100AD000FD01885F8093FD011BDD60960FB6F894E1
:100AE000DEBF0FBECDBFCF91DF911F910F91FF9061
:100AF000EF9008951F93182F80E0CBDB112319F09E
:100B0000682F6F7702C0682F606880E078DB1F91E4
:100B100008951F9380ED85D1882311F081E056C0A0
:100B200080E082D180ED92D194D1282F2F77229529
:100B30002F701AE0219F900111248F70820F8093F3
:100B4000FB0187D1282F22952F70219F900111241E
:100B50008F70820F8093FC017CD1282F2F732295F8
:100B60002F70219F900111248F70820F8093FD01BF
:100B700070D1282F22952F70219F900111248F7002
:100B8000820F8093000265D1282F22952F70219F1C
:100B9000900111248F70820F8093FF015AD1282F6A
:100BA00022952F70219F900111248F70820F8093C6
:100BB000FA0159D1282F22952F70219F90011124DD
:100BC0008F70820F8093FE0158D180E01F910895AD
:100BD0000F931F93CF93DF93259A3CD070D081E081
:100BE0006AE00DD181E086DF189909C0199907C024
:100BF00016DB05C0FE013197F1F7019705C088EEBD
:100C000093E000E2C8ECD0E00097A1F785B180271F
:100C100085B97FDF88E03DDB182F89E03ADB66E0AD
:100C200034D1682F812F3EDA88EE93E0FE013197B0
:100C3000F1F70197D9F7199904C0189902C03BDB65
:100C400006C0189902C0F9DD02C0199B94DC88EE39
:100C500093E0D0CF20982198289A299A389A4098E2
:100C600008959BB19F709BB99BB1807F892B8BB9F5
:100C70005B9A85E38A95F1F75B9808951F93182F87
:100C80005A9AEFDF812F8295807FEBDF8AE78A9582
:100C9000F1F71F9108951F93182F5A98E2DF812FC3
:100CA0008295807FDEDF80E78A95F1F71F910895B6
:100CB00081E0F1DF80EA9FE00197F1F708950F935B
:100CC0001F938AB18C6F8AB98BB183708BB980E323
:100CD00095E70197F1F780E3C4DF00E117E2C8016F
:100CE0000197F1F75B9A25E3822F8A95F1F75B98DC
:100CF00080ED97E0FC013197F1F75B9A2A95F1F7C7
:100D00005B980197F1F780E2ACDFC8010197F1F73A
:100D100088E2C1DF8CE0BFDF86E0BDDFC9DF1F9165
:100D20000F91089582E0B7DF80EA9FE00197F1F725
:100D30000895623061F0633018F4613071F405C0D9
:100D4000633039F0643049F406C0805805C08054DF
:100D500003C0805701C080539EDF0895CF93DF9377
:100D6000EC0102C021968ADF88818823D9F7DF91C0
:100D7000CF9108950F931F93CF93DF938B01880F2B
:100D8000880F880F806487DFC0E0D0E0F801EC0FA7
:100D9000FD1F808173DF2196C830D105B9F7DF913F
:100DA000CF911F910F910895982F84EA8093BC00F2
:100DB0008091BC0087FFFCCF8091B900887F88308C
:100DC00039F08091B900887F803111F081E0089579
:100DD0009093BB0084E88093BC008091BC0087FFA7
:100DE000FCCF8091B900887F883139F08091B900BB
:100DF000887F803411F082E0089580E008956B30A0
:100E000008F46BE03D983C98882319F0459A449A81
:100E100002C0459844986093B80081E08093B9007F
:100E200008958E7FC1DF08958093BB0084E880938E
:100E3000BC008091BC0087FFFCCF8091B90090E09E
:100E4000887F883209F091E0892F08958160ACDFB6
:100E5000089584EC8093BC008091BC0087FFFCCF98
:100E60008091BB00089584E88093BC008091BC0011
:100E700087FFFCCF8091BB00089584E98093BC007C
:100E80008091BC0084FDFCCF0895991B79E004C0DB
:100E9000991F961708F0961B881F7A95C9F78095B9
:100EA0000895AEE0B0E0E6E5F7E0A5C20D891E8941
:100EB0008F89988D97FF02C080E090E801979E830C
:100EC0008D831A83098386E08C839E01255E3F4FC4
:100ED000CE010196698D7A8DA90111D04D815E8177
:100EE00057FD0AC02F813885421753070CF49A0129
:100EF000020F131FF80110822E96E4E098C2ABE0B7
:100F0000B0E0E4E8F7E069C23C012B015A01FC01C2
:100F100017821682838181FD03C06FEF7FEFB9C115
:100F20009AE0892E1E010894211C311CF3012381B3
:100F3000F20123FD859123FF81912F01882309F47C
:100F4000A5C1853239F423FD859123FF81912F01BD
:100F5000853221F490E0B301B6D1E8CF982FFF2479
:100F6000EE249924FFE1FF15D0F09B3269F09C320A
:100F700028F4903259F0933291F40EC09D3249F02A
:100F8000903369F441E024C052E0F52A84E0F82A65
:100F900028C098E0F92A25C0E0E1FE2A22C0F7FC2B
:100FA00029C0892F80538A3070F4F6FE05C0989CC2
:100FB000902C1124980E15C0E89CE02C1124E80E0A
:100FC000F0E2FF2A0EC09E3229F4F6FC5FC140E435
:100FD000F42A07C09C3619F450E8F52A02C0983666
:100FE00049F4F20123FD959123FF91912F0199235B
:100FF00009F0B8CF892F8554833018F080528330A0
:1010000038F444E050E0A40EB51E5FE359830FC0EE
:10101000933631F0933779F0933509F052C01FC001
:10102000F5018081898342E050E0A40EB51E610184
:1010300001E010E011C0F501C080D180F6FC03C0D2
:101040006FEF7FEF02C0692D70E042E050E0A40E28
:10105000B51EC6012DD18C015FE7F52213C0F50145
:10106000C080D180F6FC03C06FEF7FEF02C0692D16
:1010700070E042E050E0A40EB51EC6010ED18C0116
:1010800050E8F52AF3FE06C018C080E290E0B301F4
:101090001AD1EA948E2D90E008171907B0F30DC00D
:1010A000F601F7FC8591F7FE81916F0190E0B301A5
:1010B0000AD1E110EA94015010400115110581F7A1
:1010C000E2C0943611F0993661F5F7FE08C0F501DB
:1010D000208131814281538184E090E00AC0F50192
:1010E000808191819C01442737FD4095542F82E0F7
:1010F00090E0A80EB91E9FE6F92257FF09C050954F
:101100004095309521953F4F4F4F5F4FE0E8FE2AC5
:10111000CA01B901A1012AE030E001D1D82ED218CC
:101120003FC0953729F41F2D1F7E2AE030E01DC0F7
:101130001F2D197F9F3661F0903720F4983509F004
:10114000A5C00FC0903739F0983709F09FC004C090
:1011500028E030E00AC0106114FD146020E130E0A6
:1011600004C014FD166020E132E017FF08C0F5014D
:10117000608171818281938144E050E008C0F50173
:1011800080819181BC0180E090E042E050E0A40EBB
:10119000B51EA101C4D0D82ED2188FE7F82EF122A7
:1011A000F6FE0BC05EEFF522D91438F4F4FE07C04A
:1011B000F2FC05C08FEEF82202C01D2D01C0192DD2
:1011C000F4FE0DC0FE01ED0DF11D8081803319F498
:1011D00099EEF92208C01F5FF2FE05C003C08F2DF3
:1011E000867809F01F5F0F2DF3FC13C0F0FE0EC0D0
:1011F0001E1510F09D2C0AC09D2C9E0C911A1E2DC0
:1012000005C080E290E0B3015ED01F5F1E15C8F3F9
:1012100004C01E1510F4E11A01C0EE2404FF0EC034
:1012200080E390E0B3014FD002FF1BC001FD03C07B
:1012300088E790E00EC088E590E00BC0802F8678AC
:1012400081F001FF02C08BE201C080E2F7FC8DE279
:1012500090E0B30138D005C080E390E0B30133D013
:101260009A94D914C8F3DA94F101ED0DF11D80813F
:1012700090E0B30128D0DD20B1F705C080E290E016
:10128000B30121D0EA94EE20C9F750CEF301668174
:101290007781CB012B96E2E1BCC0FC010590615047
:1012A00070400110D8F7809590958E0F9F1F08957C
:1012B000FC016150704001900110D8F78095909525
:1012C0008E0F9F1F08950F931F93CF93DF938C0171
:1012D000EB018B8181FF1BC082FF0DC02E813F81FE
:1012E0008C819D812817390764F4E881F981019385
:1012F000F983E88306C0E885F985802F0995892B55
:1013000031F48E819F8101969F838E8302C00FEFFF
:101310001FEFC801DF91CF911F910F910895FA013E
:10132000AA27283051F1203181F1E8946F936E7F24
:101330006E5F7F4F8F4F9F4FAF4FB1E03ED0B4E015
:101340003CD0670F781F891F9A1FA11D680F791F56
:101350008A1F911DA11D6A0F711D811D911DA11D67
:1013600020D009F468943F912AE0269F1124301977
:10137000305D3193DEF6CF010895462F4770405D12
:101380004193B3E00FD0C9F7F6CF462F4F70405DC1
:101390004A3318F0495D31FD4052419302D0A9F71C
:1013A000EACFB4E0A6959795879577956795BA9516
:1013B000C9F700976105710508959B01AC010A2EDC
:1013C00006945795479537952795BA95C9F7620FB3
:1013D000731F841F951FA01D08952F923F924F9257
:1013E0005F926F927F928F929F92AF92BF92CF92B5
:1013F000DF92EF92FF920F931F93CF93DF93CDB7BE
:10140000DEB7CA1BDB0B0FB6F894DEBF0FBECDBF35
:1014100009942A88398848885F846E847D848C8406
:101420009B84AA84B984C884DF80EE80FD800C810F
:101430001B81AA81B981CE0FD11D0FB6F894DEBFF2
:0C1440000FBECDBFED010895F894FFCF62
:10144C00253032643A253032643A2530326420201B
:10145C00253032642E253032640070726573656EEF
:10146C007420256400616273656E74202564006DC0
:10147C00656D6F7279207265736574006E6F206490
:10148C00617461007265616420646174610025306F
:10149C0032642F253032642041723A202530326478
:1014AC003A25303264004C656176653A202530323D
:1014BC00643A253032640059657320205265736597
:1014CC0074004E6F202020646174613F00416C7287
:1014DC006561647920416273656E74004F76657244
:1014EC00777269746520416761696E3F00253032FF
:1014FC00643A253032643A2530326420203230256B
:10150C00303264004F76657277726974656E2100B3
:10151C006C6561766520736176656400416C7265FB
:10152C006164792050726573656E740061727269C2
:0A153C007665207361766564000097
:00000001FF
