:1000000019C02BC02AC029C028C027C026C025C0BF
:1000100024C023C022C021C020C01FC01EC01DC0DC
:100020001CC01BC01AC019C018C017C016C015C00C
:1000300014C013C011241FBECFEFD4E0DEBFCDBF6C
:1000400011E0A0E0B1E0E0E1F3E002C005900D9224
:10005000A637B107D9F727D059C1D2CF823391053E
:1000600010F482E390E020ED37E0F9013197F1F7E9
:100070000197D9F7089520E030E040E2FC01E20F5B
:10008000F31F40832F5F3F4F20313105B9F70895AB
:10009000DC01FC0191E0818181939F5F9031D9F770
:1000A0001F966C930895AF92BF92CF92DF92EF921A
:1000B000FF920F931F93DF93CF93CDB7DEB7C45753
:1000C000D0400FB6F894DEBF0FBECDBFDE01519613
:1000D000E1E1F1E08AE301900D928150E1F78AE2DB
:1000E000FE01E55BFF4FDF011D928A95E9F799D08C
:1000F00056D090E021E1A22EB12CAC0EBD1E7E01A7
:100100000894E11CF11C80EDC82E87E0D82E09C0B0
:10011000F701E90FF11D80E280839F5F02C090E04C
:10012000F7CF9031A8F3850115C0C701B1DF72D0B8
:10013000C701C6D0809178009091790082339105F3
:1001400010F482E390E0F6013197F1F70197D9F7C7
:100150000F5F1F4FF8016081662339F710E0C70178
:1001600060E296DF57D0C701ABD0809178009091C4
:1001700079008233910510F482E390E0F601319723
:10018000F1F70197D9F71F5F1F3049F743D080E09F
:1001900091E096D01C9BC3CF1D99FCCFC0CF249873
:1001A00025982C9A2D9A209A219A229A3B9A38982F
:1001B00080E480937C00EAE7F0E086E08083808141
:1001C000806E808308959BB19F709BB99BB1807FA7
:1001D000892B8BB95B9A85E38A95F1F75B98089533
:1001E0001F93182F5A9AEFDF812F8295807FEBDFC4
:1001F0008AE78A95F1F71F9108951F93182F5A984F
:10020000E2DF812F8295807FDEDF80E78A95F1F73C
:100210001F91089581E0F1DF80EA9FE00197F1F7F7
:1002200008950F931F938AB18C6F8AB98BB1837035
:100230008BB980E395E70197F1F780E3C4DF00E134
:1002400017E2C8010197F1F75B9A25E3822F8A959F
:10025000F1F75B9880ED97E0FC013197F1F75B9A3D
:100260002A95F1F75B980197F1F780E2ACDFC801BE
:100270000197F1F788E2C1DF8CE0BFDF86E0BDDFE8
:10028000C9DF1F910F91089582E0B7DF80EA9FE0F8
:100290000197F1F70895623061F0633018F461302E
:1002A00071F405C0633039F0643049F406C08058F9
:1002B00005C0805403C0805701C080539EDF08955D
:1002C000CF93DF93EC0102C021968ADF88818823D7
:1002D000D9F7DF91CF9108950F931F93CF93DF93B9
:1002E0008B01880F880F880F806487DFC0E0D0E023
:1002F000F801EC0FFD1F808173DF2196C830D10516
:10030000B9F7DF91CF911F910F910895F894FFCF26
:10031000507265737320616E7920627574746F6EAC
:100320000048656C6C6F206E69636520776F726C36
:10033000642E204920616D207468652041746D65CC
:100340006C204D65676138385041204D6963726F8C
:10035000636F6E74726F6C6C657200000000000059
:10036000000000000000000000000000000000008D
:10037000000000000000000000000000000000007D
:0603800000000000000077
:00000001FF
