:1000000019C033C032C031C030C02FC02EC02DC087
:100010002CC02BC02AC029C028C027C026C025C09C
:1000200024C023C022C021C020C01FC01EC01DC0CC
:100030001CC01BC011241FBECFEFD4E0DEBFCDBF5C
:1000400011E0A0E0B1E0E0E9F2E002C005900D921D
:10005000A634B107D9F711E0A6E4B1E001C01D92C2
:10006000A934B107E1F702D011C1CACF1F93CF93D2
:10007000DF938BD048D082D080E091E0D5D080E073
:1000800062E0BDD08CE091E0CFD0809181008460AF
:1000900080938100409146015091470118E0C0E4EF
:1000A000DCE91C99FECF60E0A62FB0E0FD01E55E23
:1000B000FE4FE08120918400309185008E2F90E0EA
:1000C00028173907E8F0109285001092840088B153
:1000D000812788B9AA0FBB1FA75DBE4F8D919C9148
:1000E0004817590718F44F5F5F4F0AC0862F8F5F7C
:1000F0006FE0C0D0692FCE010197F1F740E050E0EA
:10010000EE3179F2D1CF249825982C9A2D9A209A05
:10011000219A229A3B9A389880E480937C00EAE7FF
:10012000F0E086E080838081806E808308959BB1BB
:100130009F709BB99BB1807F892B8BB95B9A85E3BC
:100140008A95F1F75B9808951F93182F5A9AEFDF5D
:10015000812F8295807FEBDF8AE78A95F1F71F91E7
:1001600008951F93182F5A98E2DF812F8295807F80
:10017000DEDF80E78A95F1F71F91089581E0F1DFD6
:1001800080EA9FE00197F1F708950F931F938AB1DA
:100190008C6F8AB98BB183708BB980E395E7019737
:1001A000F1F780E3C4DF00E117E2C8010197F1F73E
:1001B0005B9A25E3822F8A95F1F75B9880ED97E0B3
:1001C000FC013197F1F75B9A2A95F1F75B9801975B
:1001D000F1F780E2ACDFC8010197F1F788E2C1DFF7
:1001E0008CE0BFDF86E0BDDFC9DF1F910F9108956E
:1001F00082E0B7DF80EA9FE00197F1F7089562306F
:1002000061F0633018F4613071F405C0633039F087
:10021000643049F406C0805805C0805403C080573C
:1002200001C080539EDF0895CF93DF93EC0102C09D
:1002300021968ADF88818823D9F7DF91CF910895AD
:100240000F931F93CF93DF938B01880F880F880F35
:10025000806487DFC0E0D0E0F801EC0FFD1F8081F3
:1002600073DF2196C830D105B9F7DF91CF911F9187
:100270000F910895991B79E004C0991F961708F013
:10028000961B881F7A95C9F780950895F894FFCF3B
:100290005072657373204B6579203100746F207044
:1002A0006C6179206D75736963000150465061502F
:1002B0004650612C2C3533331E2C016400C800904D
:1002C000012C016400C800900158029001BC02F4A6
:0602D000015E015802006E
:00000001FF
