:1000000019C020C01FC01EC01DC01CC01BC01AC00C
:1000100019C018C017C016C015C014C013C012C034
:1000200011C010C00FC00EC00DC00CC00BC00AC064
:1000300009C008C011241FBECFEFD4E0DEBFCDBF82
:1000400007D01CC0DDCF52985A9A219A299808955A
:10005000FADF92E04A99FECFEFE3FCE93197F1F73E
:1000600000C0000085B1892785B94A9BFECFEFE328
:10007000FCE93197F1F700C00000ECCFF894FFCF16
:00000001FF
