:1000000019C02BC02AC029C028C027C026C025C0BF
:1000100024C023C022C021C020C01FC01EC01DC0DC
:100020001CC01BC01AC019C018C017C016C015C00C
:1000300014C013C011241FBECFEFD4E0DEBFCDBF6C
:1000400011E0A0E0B1E0EEE2F2E002C005900D9216
:10005000A631B107D9F711D0E8C0D2CF48EC50E0B3
:1000600009C020ED37E0FA013197F1F72150304017
:10007000D1F781508823A9F7089562D01FD059D0B5
:1000800080E091E0ACD080E062E094D08FE091E03D
:10009000A6D0289829982A98289A29982A9889E1F8
:1000A000DDDF299A82E0DADF289829982A9A82E10E
:1000B000D5DF2A98299A84E0D1DFEECF24982598BD
:1000C0002C9A2D9A209A219A229A3B9A389880E469
:1000D00080937C00EAE7F0E086E080838081806E98
:1000E000808308959BB19F709BB99BB1807F892BC2
:1000F0008BB95B9A85E38A95F1F75B9808951F9316
:10010000182F5A9AEFDF812F8295807FEBDF8AE7E5
:100110008A95F1F71F9108951F93182F5A98E2DFDF
:10012000812F8295807FDEDF80E78A95F1F71F912E
:10013000089581E0F1DF80EA9FE00197F1F70895EB
:100140000F931F938AB18C6F8AB98BB183708BB96F
:1001500080E395E70197F1F780E3C4DF00E117E260
:10016000C8010197F1F75B9A25E3822F8A95F1F791
:100170005B9880ED97E0FC013197F1F75B9A2A9547
:10018000F1F75B980197F1F780E2ACDFC8010197C6
:10019000F1F788E2C1DF8CE0BFDF86E0BDDFC9DFB9
:1001A0001F910F91089582E0B7DF80EA9FE00197E9
:1001B000F1F70895623061F0633018F4613071F442
:1001C00005C0633039F0643049F406C0805805C07A
:1001D000805403C0805701C080539EDF0895CF93A1
:1001E000DF93EC0102C021968ADF88818823D9F74A
:1001F000DF91CF9108950F931F93CF93DF938B01DE
:10020000880F880F880F806487DFC0E0D0E0F80196
:10021000EC0FFD1F808173DF2196C830D105B9F73F
:0E022000DF91CF911F910F910895F894FFCFB9
:10022E0053696D706C652074726166666963006CEB
:06023E006967687400000E
:00000001FF
