:100000001CC04BC055C021C020C01FC01EC01DC099
:100010001CC01BC01AC019C018C055C016C015C0DE
:1000200014C013C012C011C010C00FC00EC00DC04C
:100030000CC00BC032393532380011241FBECFEF4F
:10004000D4E0DEBFCDBF0CD048C0DACF5298539871
:100050005A9A5B9A209A219A229AE89AE99A0895E4
:10006000F5DF789424EC39E062E048EC50E005C01C
:10007000CA010197F1F72150304021153105C1F730
:1000800085B1862785B984EC99E0FA013197F1F7BB
:100090000197D9F724EC39E0EBCF1F920F920FB6FE
:1000A0000F921124289A0F900FBE0F901F90189551
:1000B0001F920F920FB60F92112428980F900FBE27
:1000C0000F901F9018951F920F920FB60F92112448
:0E00D0000F900FBE0F901F901895F894FFCF61
:00000001FF
