:100000001CC04AC054C021C020C01FC01EC01DC09B
:100010001CC01BC01AC019C018C054C016C015C0DF
:1000200014C013C012C011C010C00FC00EC00DC04C
:100030000CC00BC032393532380011241FBECFEF4F
:10004000D4E0DEBFCDBF16D04FC0DACF5298539860
:100050005A9A5B9A209A219A229AE89AE99AEFE6AC
:10006000F0E0808181608083E1E8F0E0808184605D
:1000700080830895EBDF789422E080918400909152
:10008000850088509D43C8F385B1822785B91092B9
:10009000850010928400F1CF1F920F920FB60F923D
:1000A0001124289A0F900FBE0F901F9018951F9241
:1000B0000F920FB60F92112428980F900FBE0F9039
:1000C0001F9018951F920F920FB60F9211248F93C5
:1000D0009F9385B194E0892785B99F918F910F9067
:0C00E0000FBE0F901F901895F894FFCFF2
:00000001FF
