:100000001CC023C022C021C020C01FC01EC01DC0F4
:100010001CC01BC01AC019C018C017C016C015C01C
:1000200014C013C012C011C010C00FC00EC00DC04C
:100030000CC00BC032393532380011241FBECFEF4F
:10004000D4E0DEBFCDBF02D026C0DACF1CD04A9BA1
:1000500004C04B9B02C0289A01C028984A9904C04A
:100060004B9902C0299A01C0299899B189B19695F6
:100070009695869586958695892780FF02C02A9A4F
:10008000E6CF2A98E4CF529853985A9A5B9A209ACE
:0A009000219A229A0895F894FFCFF8
:00000001FF
