:100000001CC023C022C021C020C01FC01EC01DC0F4
:100010001CC01BC01AC019C018C017C016C015C01C
:1000200014C013C012C011C010C00FC00EC00DC04C
:100030000CC00BC030303030300011241FBECFEF69
:10004000D4E0DEBFCDBF0AD027C0DACF5298539894
:100050005A9A5B9A209A219A229A0895F7DF28ECFF
:1000600030E042E001C0289A4A9BFDCF84EC99E041
:10007000F9013197F1F70197D9F785B1842785B94F
:1000800084EC99E0F9013197F1F70197D9F701C0B4
:0C00900028984B9BFDCFE8CFF894FFCFE1
:00000001FF
