:1000000030C042C041C040C03FC03EC03DC03CC007
:100010003BC03AC039C038C037C036C035C034C024
:1000200033C032C031C030C02FC02EC02DC02CC054
:100030002BC02AC053C06BC058C05CC060C062C037
:1000400063C064C067C06CC08AC0A2C08FC093C0C8
:1000500097C099C09AC09BC09EC0A3C032393532A8
:10006000380011241FBECFEFD4E0DEBFCDBF11E0BA
:10007000A0E0B1E0E4E4F2E002C005900D92A2300D
:10008000B107D9F7A3D0DCC0BBCF3C983D98449AC8
:10009000459A209A219A229A239A249A259A389A44
:1000A000399A529A539A549A559A569A579A089549
:1000B000982F809101019817D9F1909301012C9804
:1000C0002D98409841985D985E985F98E92FF0E0F0
:1000D000EA30F10560F5E65EFF4F09945F9A5E9A9B
:1000E0005D9A2C9A2D9A409A08955F9A5E9A2C9A5E
:1000F0002D9A1BC05F9A5E9A5D9A2C9A16C05E9AE2
:100100005D9A12C05F9A0EC05F9A06C05F9A5E9AAF
:100110005D9A08955F9A5E9A5D9A2C9A2D9A04C012
:100120005F9A5E9A5D9A2C9A409A419A0895419AF4
:100130000895982F809100019817D9F190930001AC
:1001400028982998429843985A985B985C98E92F88
:10015000F0E0EA30F10560F5EC5DFF4F09945C9A40
:100160005B9A5A9A289A299A2A9A08955C9A5B9AD5
:10017000289A299A1BC05C9A5B9A5A9A289A16C0A8
:100180005B9A5A9A12C05C9A0EC05C9A06C05C9A3E
:100190005B9A5A9A08955C9A5B9A5A9A289A299A75
:1001A00004C05C9A5B9A5A9A289A2A9A2B9A0895C4
:1001B0002B9A08951F93182F6AE036D0892FB9DF44
:1001C000812F6AE031D074DF1F9108951F93CF9380
:1001D000DF935BDF10E0C8ECD0E0812FEBDF3499D8
:1001E00010C01F5F133658F010E009C0359B10E0B7
:1001F0008EEE92E0FE013197F1F70197D9F7349B2B
:10020000F5CF3599EACF115017FF0BC013E609C09F
:10021000349B10E08EEE92E0FE013197F1F70197EA
:10022000D9F73599DACFF4CF991B79E004C0991F3B
:10023000961708F0961B881F7A95C9F78095089540
:04024000F894FFCF60
:020244006464F0
:00000001FF
